:020000040800F2
:10000000E806002089010008671600087915000835
:1000100065160008650300081319000800000000B9
:100020000000000000000000000000006B16000847
:100030006703000800000000691600086D1600083C
:10004000A3010008A3010008A3010008A301000800
:10005000A3010008A3010008A3010008A3010008F0
:10006000A3010008A3010008A3010008A3010008E0
:10007000A3010008A3010008A3010008A3010008D0
:10008000A3010008A3010008A3010008A3010008C0
:10009000A3010008A3010008A3010008A3010008B0
:1000A000A3010008A3010008A3010008A3010008A0
:1000B000A3010008A3010008A3010008A301000890
:1000C000A3010008A3010008A3010008A301000880
:1000D000A3010008A3010008A3010008A301000870
:1000E000A3010008A3010008A301000800F002F822
:1000F00000F03AF80AA090E8000C82448344AAF188
:100100000107DA4501D100F02FF8AFF2090EBAE885
:100110000F0013F0010F18BFFB1A43F0010318473B
:10012000C41F0000E41F0000103A24BF78C878C143
:10013000FAD8520724BF30C830C144BF04680C60ED
:10014000704700000023002400250026103A28BF35
:1001500078C1FBD8520728BF30C148BF0B60704739
:100160001FB51FBD10B510BD00F058F81146FFF7C0
:10017000F7FF01F0DFFB00F076F803B4FFF7F2FFC2
:1001800003BC00F07DF8000009488047094800479B
:10019000FEE7FEE7FEE7FEE7FEE7FEE7FEE7FEE737
:1001A000FEE7FEE704480549054A064B7047000094
:1001B000D9160008ED000008E8000020E80600203D
:1001C000E8020020E80200204FF0000200B51346CC
:1001D00094469646203922BFA0E80C50A0E80C5067
:1001E000B1F12001BFF4F7AF090728BFA0E80C5018
:1001F00048BF0CC05DF804EB890028BF40F8042B11
:1002000008BF704748BF20F8022B11F0804F18BF7D
:1002100000F8012B7047704770477047754600F033
:100220002BF8AE4605006946534620F00700854688
:1002300018B020B5FFF7B6FFBDE820404FF000062C
:100240004FF000074FF000084FF0000B21F00701BE
:10025000AC46ACE8C009ACE8C009ACE8C009ACE801
:10026000C0098D46704710B50446AFF300802046A4
:10027000BDE81040FFF781BF0048704788000020AC
:1002800001491820ABBEFEE72600020070470000BF
:1002900070B5044600688168C943C90717D18168F1
:1002A00021F00101816000F09BFB05460AE000BFE0
:1002B00000F096FB401B022804D920688068C043E8
:1002C000C00706D020688068C043C007F0D0002077
:1002D00070BDA06A40F01000A062E06A40F001002A
:1002E000E062012070BD0000F8B5002604460096CB
:1002F00000688168C943C9072DD0816841F00101B8
:100300008160164816490068B0FBF1F000E0401E1D
:1003100000900028FBD100F063FB054616E000BF0B
:1003200000F05EFB401B022810D920688068C043A3
:10033000C0070BD0A06A40F01000A062E06A40F055
:100340000100E06284F824600120F8BD2068806824
:10035000C043C007E4D10020F8BD00000C0000201D
:1003600040420F00FEE77047F8B50024009490F873
:1003700024202546012A12D0012280F824204A6830
:100380001F23072A0DD20668776B521E02EB8202EA
:1003900093409F430B6893401F43776319E002200B
:1003A000F8BD06680D2A0AD2376BD21F02EB820213
:1003B00093409F430B6893401F43376309E0F76AFC
:1003C0000D3A02EB820293409F430B6893401F4318
:1003D000F7620A68072306680A2A0AD3F7680A3A06
:1003E00002EB420293409F438B6893401F43F760A8
:1003F00008E0376902EB420293409F438B689340C9
:100400001F4337610A68102A01D0112A20D1124BEC
:1004100002689A4217D193681B0219D4936843F477
:10042000000393600968102912D10C490C4A09682D
:10043000B1FBF2F101EB8101490000E0491E00919E
:100440000029FBD104E0816A41F02001816201248E
:1004500080F824502046F8BD002401400C00002004
:1004600040420F000068C06C704700002DE9F04169
:100470004FF0000704003D467ED0A06A002628B950
:10048000E66284F82460204600F07EF82046FFF7FC
:10049000FFFEA16AC90600D420B1A06A40F0100096
:1004A000A06269E0A16A21F4885141F00201A162D1
:1004B0006268E169237B0A4347EA43010A43A16872
:1004C0004FF48077B94209D0012907D05FF00001CD
:1004D00094F814C0BCF1010F02D00AE03946F7E7E6
:1004E000F3B1A36A43F02003A362E36A43F001037C
:1004F000E3622368D3F804C02CF4694C4CEA010C85
:10050000C3F804C021688B68DFF870C003EA0C03ED
:1005100013438B60A168B9420BD0012909D00CE0CC
:10052000DFF85CC0A3690CEB43330B4343F4006179
:10053000DFE7218A0D05A5F580152168CB6A23F434
:1005400070032B43CB62216889680E4B194091429E
:1005500008D1E662A16A21F0020141F00101A16225
:10056000BDE8F081A06A20F0020040F01000A06217
:10057000E06A40F00100E0620120F1E7FDF7E1FFF1
:1005800000E0FFFFFE0E1FFF00B585B000210091C7
:1005900001910291039100680E49884218D10E48DA
:1005A000816941F400718161816901F400710491F4
:1005B000816941F0080181618069694600F00800A5
:1005C00004900220009003200190044800F018F9E4
:1005D00005B000BD0024014000100240000C0140A5
:1005E0002DE9F84300270D460446009700F0F8F97E
:1005F000804620688168C90508D5A06A40F02000BF
:10060000A06284F824700120BDE8F8834168C90520
:1006100003D4C06A10F4700F2AD0022000F070FAE0
:100620003B490968B1FBF0F62068036939490B4280
:100630004FEA61014FEAA1121FD1C3684FEA611C62
:1006400013EA0C0F19D103690B4225D1C06810427F
:1006500022D1142023E0681C0AD02DB100F0C0F98B
:10066000A0EB0800A84203D920680068800725D5C0
:10067000206800688007EED52DE003690B4202D1A7
:10068000C168114206D0026923490A4206D1C068F6
:10069000084203D1542002E0292000E0FC20464318
:1006A000009816E0681C11D02DB100F099F9A0EB6C
:1006B0000800A8420AD90098B04207D2A06A40F0C8
:1006C0000400A06284F8247003209DE70098401C79
:1006D0000090B042E6D321686FF012000860A06A73
:1006E00040F40070A06220688068C0F34240072890
:1006F0000CD1207B50B9A06A20F48070A062A06A5F
:10070000C00403D4A06A40F00100A06200207BE78F
:100710000C000020244992244992240070B504461C
:1007200090F8240001280DD0012084F824002046F0
:10073000FFF7DAFD02004FF0000005D084F8240036
:10074000104670BD022070BDA16A40F2012399439A
:1007500041F48071A1621F4D23681F49AB4218D13B
:100760000E6816F4702F14D0A66A46F48016A6629E
:100770000E68760505D5A66A26F4005646F480561E
:10078000A662A66AF6040AD5E66A26F00606E662BE
:1007900006E0A66A26F48016A6625E68E9E7E062D3
:1007A00084F824006FF00200186020688368C3F3A7
:1007B0004243072B05D1A84208D1096811F4702FD4
:1007C00004D0816841F480118160B9E7816841F407
:1007D000A001F9E7002801400424014070B5044657
:1007E00000F0FEF80546601C02D00448007804447E
:1007F00000F0F6F8401BA042FAD370BD00000020C4
:100800002DE9F84FDFF8B891002409F1040A0AF144
:10081000040B23460F270BF1040EC9E00125A54068
:100820002A40AA427DD1674ED1F804C0ACEB06083D
:10083000B44532D014DCBCF1030F3AD009DCBCF172
:10084000000F2AD0BCF1010F1CD0BCF1020F31D136
:100850001DE0BCF1110F17D0BCF1120F2AD119E025
:10086000B8F5881F19D006DCB8F5803F15D0B8F56B
:10087000801F1FD111E0B8F5001F0ED0B8F5041F7E
:1008800018D10AE0CB6815E0CB681B1D12E0CB68DD
:1008900008330FE0CB680C330CE08B682BB1012BD5
:1008A0004FF0080303D0456104E0042302E0056132
:1008B00000E00023FF2A01D8064601E000F104060B
:1008C0004FEA840501D9A5F12005D6F8008007FA82
:1008D00005FC28EA0C0803FA05F548EA0508C6F8FD
:1008E00000804D68ED0062D5374DAE6946F00106D7
:1008F000AE61AD6924F0030605F001050095334DA6
:1009000006EB050CDCF80850A607360F07FA06F8C8
:1009100025EA0805DFF8B880404503D14FF000080C
:1009200017E044E0DFF8AC80404502D14FF0010809
:100930000FE0DFF8A480404502D14FF0020808E044
:10094000DFF89880404502D14FF0030801E04FF0F6
:10095000040808FA06F848EA0508CCF808804D684B
:10096000D9F80060ED034D4601D5164300E09643EB
:100970002E604D68DAF80060AD03554601D5164388
:1009800000E096432E604D68DBF80060ED025D46A6
:1009900001D5164300E096432E604D68DEF80060F6
:1009A000AD02754601D5164300E096432E60641CE7
:1009B0000D682A46E5407FF431AFBDE8F88F0000AE
:1009C000000401400000111000100240000001402E
:1009D00000080140000C01400010014000140140DB
:1009E00001488068704700000000002002488168CC
:1009F000027811448160704700000020074810B55C
:100A0000016841F010010160032000F067F80F2039
:100A100000F006F800F024F8002010BD002002408D
:100A200070B50D4D04464FF47A712878B1FBF0F0A3
:100A30000A490968B1FBF0F000F0A8FB48B9102C96
:100A400007D200222146501E00F028F800206C60DA
:100A500070BD012070BD0000000000200C000020CF
:100A60000C4808B5816941F001018161816901F09B
:100A700001010091C16941F08051C161C06900F07C
:100A8000805000900448416821F0E06141F000711D
:100A9000416008BD0010024000000140F0B40E4B60
:100AA0001B680C46C3F30223C3F10705042D00D9CC
:100AB0000425191D072901D2002300E0DB1E0126B1
:100AC00006FA05F1491E214099409E40761E1640C7
:100AD0003143F0BC00F01EBF0CED00E0064900F011
:100AE000070208684FF6FF03184040EA0220034A55
:100AF00010430860704700000CED00E00000FA05AC
:100B000010B529A401461DCC86B08DE81D002AA091
:100B10002A4C006804900020012923D002293AD0F1
:100B200010291DD161682268D20119D5C1F3834211
:100B3000C9031DF8020009D5616804AAC1F3404148
:100B4000515C1F4AB2FBF1F1484301E01D494843A3
:100B50006168490204D440005FF00301B0FBF1F08A
:100B600006B010BD226AC2F30121012903D1920708
:100B700001D5C803F4E7022905D1626A920702D5BC
:100B800049F64040ECE70329EAD121688903E7D51B
:100B90004FF22440E4E700F023F96168C1F38131AA
:100BA000491C4900DAE700000203040506070809AA
:100BB0000A0B0C0D0E0F1010010200000010024075
:100BC00000127A0000093D002DE9F843054600783F
:100BD000354CC00754D0E0690026C00008D4E06955
:100BE00040F08050E061E069012600F08050009004
:100BF0002E480168C90512D40168804641F480710D
:100C00000160FFF7EDFE074605E000BFFFF7E8FED5
:100C1000C01B642823D8D8F80000C005F6D5206A88
:100C200010F4407021D0A98801F4407181421CD099
:100C3000206A1F49012220F440700A6000220A60E5
:100C40002062C00711D0FFF7CBFE074641F288387B
:100C500008E000BFFFF7C4FEC11B414502D90320D5
:100C6000BDE8F883206A8007F4D5206A696820F41B
:100C70004070084320621EB1E06920F08050E061BE
:100C80002878800705D56068A96820F440400843AB
:100C900060602878C00605D56068E96820F48000A7
:100CA000084360600020DBE7001002400070004055
:100CB000400442422DE9F0470F46050061D0434E03
:100CC000306800F00700B84209D2306820F0070011
:100CD00038433060306800F00700B84251D12868CE
:100CE0003B4C810712D5400703D5606840F4E060B3
:100CF00060602878000703D5606840F46050606049
:100D00006068A96820F0F000084360602878C00798
:100D100028D06868012810D02168022810D08907DF
:100D200000292EDA616821F0030101436160FFF7B9
:100D300057FE804641F288390DE021688903EFE7CC
:100D40008901EDE7FFF74CFEA0EB0801494502D908
:100D50000320BDE8F0876068696800F00C00B0EB24
:100D6000810FEFD1306800F00700B8420BD930682E
:100D700020F0070038433060306800F00700B842C8
:100D800001D00120E5E72878400705D56068E968CB
:100D900020F4E060084360602878000706D56068AA
:100DA000296920F4605040EAC100606000F028F832
:100DB0006168084AC1F30311515CC84006490860E4
:100DC00006480068FFF72CFE0020C2E70020024022
:100DD00000100240CC2000080C000020040000207D
:100DE0000448054900684968044AC1F3C221515CBE
:100DF000C84070470C00002000100240DC200008B2
:100E000012A185B00FC98DE80F0014A0144A006824
:100E100004905168134801F00C03042B10D0082BE8
:100E20000ED1C1F38343C9031DF803000AD55168ED
:100E300004AAC1F34041515C0A4A5043B0FBF1F0AF
:100E400005B0704708494843FAE70000020304056B
:100E5000060708090A0B0C0D0E0F10100102000006
:100E60000010024000127A0000093D002DE9F84F01
:100E7000040070D02078C04DC00749D06868C0F326
:100E80008100012807D06868C0F38100022809D1D9
:100E90006868C00306D52868800339D560680028D3
:100EA000E7D035E06068B0F5803F0BD010B1B0F509
:100EB000A02F11D0286820F480302860286820F402
:100EC000802002E0286840F480302860606890B19B
:100ED000FFF786FD06460AE0286840F48020286077
:100EE000F0E700BFFFF77CFD801B642873D82868FB
:100EF0008003F7D50CE0FFF773FD064605E000BF61
:100F0000FFF76EFD801B6428F0D828688003F7D4B3
:100F100020789A4E80074FF001094FF0000839D52C
:100F2000686810F00C0F07D06868C0F381000228D1
:100F300009D16868C00306D42868800714D52069E1
:100F4000012808D110E02069B0B1C6F80090FFF781
:100F500047FD074605E00AE1FFF742FDC01B0228F6
:100F6000C4D828688007F7D52868616920F0F800A0
:100F700040EAC10028600DE0C6F80080FFF730FDB0
:100F8000074604E0FFF72CFDC01B022823D8286881
:100F90008007F7D4207800072CD57948A169D9B10A
:100FA000C0F80090FFF71CFD074604E0FFF718FDAE
:100FB000C01B02280FD8686A8007F7D571484FF424
:100FC000FA510068B0FBF1F0009000BF0098411E9C
:100FD0000091FAD20EE080E0C0F80080FFF700FD3B
:100FE000074604E0FFF7FCFCC01B022875D8686ABE
:100FF0008007F7D42078400760D5E8690027C00053
:1010000008D4E86940F08050E861E869012700F001
:10101000805000905C480168C90513D4016883467C
:1010200041F480710160FFF7DBFC824606E000BFFF
:10103000FFF7D6FCA0EB0A0064284ED8DBF80000CE
:10104000C005F5D5E06801280AD008B1052813D0FD
:10105000286A20F001002862286A20F0040002E0DB
:10106000286A40F001002862E06841F2883B98B1AC
:10107000FFF7B6FC82460BE0286A40F004002862C5
:10108000EEE700BFFFF7ACFCA0EB0A0159455AD8C8
:10109000286A8007F6D50CE0FFF7A2FC824605E03F
:1010A000FFF79EFCA0EB0A0159454CD8286A80073F
:1010B000F6D41FB1E86920F08050E861E06988B398
:1010C0006968C1F38101022944D00228C6F8608012
:1010D00004D0FFF785FC044638E034E0FFF780FCDD
:1010E000074604E0FFF77CFCC01B02282BD82868C9
:1010F0008001F7D4206AB0F5803F05D16868A16807
:1011000020F4003008436860D4E9080108436968A6
:1011100021F4741108436860C6F86090FFF760FC22
:10112000044606E025E000BFFFF75AFC001B02283A
:1011300009D828688001F7D51BE000BFFFF750FCF5
:10114000001B022802D90320BDE8F88F286880011F
:10115000F4D40EE00128F7D06868226A00F48031E8
:10116000914204D1616A00F47010884201D00120DC
:10117000EAE70020E8E700000010024000004242D9
:10118000800442420C0000200070004010B5401E58
:10119000B0F1807F01D3012010BD4FF0E0246061E9
:1011A0000F21601700F0B6FB0020A061072020612E
:1011B000002010BD70B590F83C20012A26D00124F3
:1011C00080F83C40022280F83D2003685A689D6800
:1011D00022F070060A6832435A600D4B02689A4248
:1011E00008D0B2F1804F05D00A4B9A4202D00A4B88
:1011F0009A4204D1496825F080031943916080F830
:101200003D40002180F83C10084670BD022070BDB2
:10121000002C0140000400400008004010B504000C
:1012200003D094F83D0010B107E0012010BD00206C
:1012300084F83C00204600F01FF8022084F83D00AE
:10124000211D206800F04AFA012084F8460084F845
:101250003E0084F83F0084F8400084F8410084F8A0
:10126000420084F8430084F8440084F8450084F880
:101270003D00002010BD000008B50068B0F1804FAF
:1012800008D10548C16941F00101C161C06900F0A0
:101290000100009008BD00000010024070B5044637
:1012A00090F83C00012817D0012584F83C5002201A
:1012B00084F83D002068826822F0770222F47F42A1
:1012C00082600868502830D00DDC20284DD005DC25
:1012D00098B310283BD148E0022070BD302844D09C
:1012E000402834D139E0602828D0702806D0B0F5E5
:1012F000805F2CD0B0F5005F29D10AE0CB68D1E93E
:101300000121206800F02DFA2068816841F0770102
:1013100009E0CB68D1E90121206800F022FA2068B9
:10132000816841F48041816011E0CA6849682068A1
:1013300000F0CCFA5021206807E016E0CA6849683E
:10134000206800F0D4FA6021206800F014FA84F8D4
:101350003D50002084F83C0070BDCA684968206890
:1013600000F0B4FA40212068EFE7226801461046F9
:10137000EBE7000000B585B00021009101910291DA
:1013800003910068B0F1804F10D10948816941F0A4
:10139000040181618069694600F004000490022024
:1013A0000090019003900348FFF72AFA05B000BDB2
:1013B000001002400008014070B5044690F83C005F
:1013C0000D4601280AD0012084F83C0042B1042ACD
:1013D00018D0082A2AD00C2A4DD139E0022070BD3D
:1013E000206800F0D1F92068816941F0080181612D
:1013F0002068816921F004018161206881692A697E
:10140000114311E0206800F0E7F92068816941F498
:10141000006181612068816921F4806181612068B7
:1014200081692A6941EA0221816124E0206800F093
:10143000FFF92068C16941F00801C1612068C169F4
:1014400021F00401C1612068C1692A69114311E0DA
:10145000206800F019FA2068C16941F40061C16197
:101460002068C16921F48061C1612068C1692A696D
:1014700041EA0221C161002084F83C0070BD10B532
:10148000040003D094F83D0010B107E0012010BD26
:10149000002084F83C00204600F01EF8022084F86A
:1014A0003D00211D206800F019F9012084F8460054
:1014B00084F83E0084F83F0084F8400084F841003E
:1014C00084F8420084F8430084F8440084F845001E
:1014D00084F83D00002010BD7047000010B50446A0
:1014E000022249B104290ED0082913D094F84100F2
:1014F000012816D0012010BD94F83E000128F9D132
:1015000084F83E200FE094F83F000128F2D184F8DF
:101510003F2008E094F840000128EBD184F84020F7
:1015200001E084F841200122206800F00DF90F4904
:101530002068884203D1426C42F400424264206831
:10154000884208D0B0F1804F05D00949884202D0C6
:101550000849884204D1816801F00701062903D0B7
:10156000016841F001010160002010BD002C014024
:101570000004004000080040FEE700003EB50024E3
:1015800011480094019402940E4984600160012581
:101590000573047505614FF460214460C161FEF775
:1015A00065FF08B172B6FEE70920CDE9000569467E
:1015B00002940548FEF7D8FE002801D072B6FEE777
:1015C0003EBD0000002401401000002010B58EB088
:1015D00000240794089409940A940B941C216846EB
:1015E0000C94FEF7F1FD1E484FF0804101600F2181
:1015F000C0E9011442F20F71C0E903148461FFF7DE
:101600000DFE08B172B6FEE74FF48050079007A9AF
:101610001348FFF743FE08B172B6FEE71048FFF724
:101620002EFF08B172B6FEE70B940BA90C480C9480
:10163000FFF7C0FD08B172B6FEE76020CDE90004F7
:1016400002940422694606480494FFF7B5FE08B1E7
:1016500072B6FEE70248FFF78DFE0EB010BD000027
:1016600040000020FEE7FEE770477047FFF7BEB975
:1016700030B593B028216846FEF7A6FD14210AA8CC
:10168000FEF7A2FD002401200F940225049000958E
:101690001020119405901094129407946846FFF757
:1016A000E5FB08B172B6FEE70F20CDE90A040C9401
:1016B0000D9400210AA80E94FFF7FCFA08B172B647
:1016C000FEE70FA80F951194FFF77EFA002801D0CE
:1016D00072B6FEE713B030BD70470000F0B5026887
:1016E000164B174C174D4FF08047984205D0B84223
:1016F00003D0A04201D0A84203D122F070064A686C
:101700003243984205D0B84203D0A04201D0A8424B
:1017100003D122F44074CA6822434C6922F080024B
:10172000224302608A68C2620A688262984201D1DA
:101730000969016301214161F0BD0000002C0140F5
:10174000000400400008004010B501F01F03012113
:10175000046A99408C430462016A9A401143016211
:1017600010BD10B5846842EA032224F47F440A4382
:101770002243826010BD826822F070020A4342F068
:10178000070181607047000030B5026A22F0010253
:101790000262026A4368846924F073050C682C4372
:1017A00022F002058A682A430A4DA8420BD122F092
:1017B0000805CA6823F440732A434D6922F00402E5
:1017C0001D438B692B434360846149684163026216
:1017D00030BD0000002C014030B5026A22F010023A
:1017E0000262026A436884690D6824F4E64444EAAC
:1017F00005248D6822F0200242EA05120B4DA84212
:101800000ED1CD6822F0800242EA05124D6923F420
:10181000406343EA85038D6922F0400243EA850371
:101820004360846149688163026230BD002C0140DD
:1018300030B5026A22F480720262036A4268C469A7
:1018400023F4007324F073050C682C438D6843EA7D
:1018500005230C4DA8420ED1CD6823F4006343EA62
:1018600005234D6922F4405242EA05128D6923F4A2
:10187000806342EA05124260C4614968C163036241
:1018800030BD0000002C014030B5026A22F48052C5
:101890000262046A4268C3690D6823F4E64343EABE
:1018A00005238D6824F4005444EA0534064DA8420B
:1018B00004D14D6922F4804242EA85124260C3613C
:1018C00049680164046230BD002C014010B5036A10
:1018D000046A24F001040462846924F0F00444EAF8
:1018E000021423F00A020A438461026210BD10B59B
:1018F000036A23F0100303628369046A23F47043CC
:1019000043EA023224F0A00343EA0111826101623A
:1019100010BDFEE70907090E002804DB00F1E020F6
:1019200080F80014704700F00F0000F1E02080F80C
:10193000141D704708B5FFF761F8FFF799FE2048BE
:10194000816941F004018161816901F00401009124
:10195000816941F008018161806900F00800009010
:10196000FFF734FEFFF70AFE1648FEF7D7FE1548CC
:1019700004213030FFF7B2FD124C134FDFF84C80DA
:1019800030344FF47A754FF0663629460D48FEF72D
:1019900027FE0C48FEF766FD80B200F046FA32469C
:1019A0003B4600F0BDF80022434600F011F800F07D
:1019B0000FFA216880B288633220FEF70FFFE4E758
:1019C00000100240100000206666104000406F408A
:1019D00010B591EA030F48BF83F0004300F19482F1
:1019E000841A71EB030C05D2121943EB0C03001B94
:1019F00061EB0C01DFF824E14FEA1154A4EB135C16
:101A00001EEA430F18BF9EEA445F73D023EA0E0319
:101A1000DCF1200E21EA045143F4801332D322FA80
:101A20000CFE10EB0E0023FA0CFE41EB0E01CCF184
:101A3000200E03FA0EFE10EB0E0051F10001B1F57D
:101A4000801FCCF1200E32D201EB045112FA0EF2BB
:101A5000BDE8104058BF7047401C38BF5FEA4202E3
:101A600018BF7047002814BF20F0010041F10001A9
:101A70004FEA410313F5001F38BF7047A1F1C04181
:101A800000F034BA012A43EB0302ACF1200CDCF184
:101A90001F0E32BF4FF0000E23FA0CF310EB0300C1
:101AA00041EB0451B4EB115FD0D0A1EB045101F52F
:101AB000801149085FEA300001EB04510ED350F168
:101AC000000038BF12FA0EFE08D1BDE81040C9E789
:101AD000401C38BF5FEA4202CAD1C3E7BDE81040EC
:101AE0004FEA410313F5001F38BF7047A1F1C04111
:101AF00000F0FCB99EEA445F08D011EA5E0FBDE831
:101B0000104004BF01F0004100207047BDE81040C4
:101B100070B500F09DF900BF64FBBE3E0000E0FF21
:101B20002DE9C04130B4DFF8A0C23CEA111418BF5F
:101B30003CEA131400F0EC8081EA03051CEA11145E
:101B400044EAD57418BF1CEA131500F0C780A4EB53
:101B500005044FF0004545EAC12145EAC32341EAA7
:101B6000505143EA525304F17F74994204F5003412
:101B70004FEAC0204FEAC22208BF904200F09C808A
:101B80004FEA13650FF24016765D4FEA134506FBE8
:101B900005F7C7F1807706FB07F74FEAD737A7FBB2
:101BA00003687642C8F58038A7FB06CE38BFA8F197
:101BB000010807FB08E64FF0000EA6FB028CE6FBCF
:101BC00003CEDCF1000CCEF1004E38BFAEF1010EB9
:101BD000A6FB0C584FF000074FF00005E6FB0E8700
:101BE000A1FB08C6A0FB07CE16EB0E0645F10005CB
:101BF000E1FB076515F1E04E7EBFA4F580345FEA96
:101C000046066D4116F1800745F100054FEA17279A
:101C10004FEA066647EA0567A6F1DE46B6F1805F41
:101C20004FEA15251FD9384624F0010C05EBC47185
:101C3000BCF1FE6F01EB0C1102D8F0BCBDE80081D5
:101C400024425CBF01F5801E9EEAC47F02D4F0BC32
:101C5000BDE80081244238D4F0BCA1F1C041BDE808
:101C6000004100F043B94FEAD22242EA43524FEA20
:101C7000D323A7FB02864FEAD02040EA415007FB5E
:101C800003661EEA0E0F4FEAD12105FB026658BF1C
:101C9000A6EB0056B6EB00564FEA520E4EEAC37E54
:101CA00018EB0E0E56EB530EBDD518EB02085E4135
:101CB0007F1C55F10005B6E74FF480154FF0000783
:101CC0004FF000064FF00008ADE7F0BC4FF0000009
:101CD00001F1C04101F00041BDE8008111EA0C1F93
:101CE0000CEA131500D00CE013EA0C1F00F025805D
:101CF0004FF00000F0BC81EA030101F00041BDE8B3
:101D00000081F0BCBDE8004181EA030100F0EEB8BB
:101D1000F0BCBDE8004170B500F09AF8097EFC3EC9
:101D200000F007B881EA03014FF0000001F0004124
:101D3000704781EA030100F0D9B8F0BCBDE800416A
:101D40004FF0000021497047FFFDFBF9F7F5F4F271
:101D5000F0EEEDEBE9E8E6E4E3E1E0DEDDDBDAD846
:101D6000D7D5D4D3D1D0CFCDCCCBCAC8C7C6C5C4A4
:101D7000C2C1C0BFBEBDBCBBBAB9B8B7B6B5B4B3BB
:101D8000B2B1B0AFAEADACABAAA9A8A8A7A6A5A4A6
:101D9000A3A3A2A1A09F9F9E9D9C9C9B9A9999986A
:101DA0009797969595949393929191908F8F8E8E0D
:101DB0008D8C8C8B8B8A898988888787868585849A
:101DC00084838382828181800000FF070000F87F86
:101DD0004FEA1153A3F58063D3F11E03A8BFD3F1DB
:101DE000200C08DB4FF0004242EAC12252EA505276
:101DF00032FA03F0704709420BD4102BC4BF002005
:101E0000704703F5787CBCF1FF3F05D04FF0FF3001
:101E100070474FF00000704770B500F019F800BF30
:101E20004992248000207047F0E7B0FA80F310FA5E
:101E300003F10AD0C3F11D0303F580634FEA41505B
:101E40004FEA035202EBD12170474FF00000704778
:101E50000EF1020E2EF0030E5EF8046B364205D42E
:101E6000012A43EB030515F5001F12D8012841EBA9
:101E7000010C1CF5001F0CD80ED14FEAD17C15F5D2
:101E8000001F0CEB4C0C0CF1020C08BF4CEBD37C8C
:101E900004E04FF0080C01E04FEAD37C0CEB4C055A
:101EA00026FA05F606F00706B6F1040C06D20EEB8C
:101EB000860CBDE870404CF0010C6047DFE80CF088
:101EC000090B02024FF000414FF00000A1F5002184
:101ED00070BD19461046012851EB010418BFD4F516
:101EE000001484BF002001F0004170BD0808A0F577
:101EF00000114FEA3101704710B591EA030F48BF56
:101F000083F000433FF56CAD841A71EB030C07D2EC
:101F100012198CF0004C43EB0C03001B61EB0C011D
:101F2000DFF8A4E14FEA1154A4EB135C1EEA430F5F
:101F300018BF9EEA445F00F0B08023EA6E0352426D
:101F400021EA0451C3EB6E0338BF5B1EDCF1200EA7
:101F500025D322FA0CFE10EB0E0043FA0CFE41EBE7
:101F60000E01CCF1200E03FA0EFE10EB0E0051F123
:101F70000001CCF1200E29D412FA0EF201EB04512B
:101F8000BDE8104058BF7047401C1CBFB2F1004F65
:101F9000704700280CBF491C20F00100704712EB6D
:101FA000020E43EB030218BF4FF0010E4EEA42024D
:101FB000ACF1200CDCF11E0E54D943FA0CFE10EBF0
:101FC0000E0051F1FF31CCF11E0ED5D50EF1010EF0
:101FD00012FA0EFE404141EB010101EB445C5FEA65
:101FE0005C5C10D910EBDE7001EB045138BFBEF120
:101FF000004FBDE8104018BF704700280CBF491CB7
:1020000020F00100704730D24FEAD42C11F50011B6
:1020100024F400641BD0B1FA81F20B3AA41AA41E76
:10202000D2F12003914030FA03F31943904001EBC1
:10203000CC71002C01EB0451BDE81040A8BF7047E3
:1020400001F1C0414FF0000001F000417047B0FACB
:1020500080F310FA03F100D110BDE41A173C4805D3
:10206000C90AE4E701EB045110BD491001EB04512A
:10207000BDE810404FEA300002E04FF00001704729
:102080004A0008BF0042F8D0B2F5001F28BF7047D1
:1020900001F000414FF0000070479EEA445F07D016
:1020A00011EA5E0FBDE8104004BF00210020704718
:1020B000BDE8104070B5FFF7CBFE00BF40DFF63E35
:1020C00083F00041104670470000E0FF0000000070
:1020D00000000000010203040607080900000000D8
:1020E0000102030404210008000000201000000089
:1020F000280100081421000810000020D806000064
:102100004401000801000000100000000000000071
:042110000024F400B3
:04000005080000ED02
:00000001FF
