:020000040800F2
:10000000E8070020E1010008630D00087D090008F1
:100010005F0D0008630600083519000800000000A5
:10002000000000000000000000000000BD100008FB
:10003000AF06000800000000D50D0008E911000817
:10004000FB010008FB010008FB010008FB010008A0
:10005000FB010008FB010008FB010008FB01000890
:10006000FB010008FB010008FB010008FB01000880
:10007000FB010008FB010008FB010008FB01000870
:10008000FB010008FB010008FB010008FB01000860
:10009000FB010008FB010008FB010008FB01000850
:1000A000FB010008FB010008FB010008FB01000840
:1000B000FB010008FB010008FB010008FB01000830
:1000C000FB010008FB010008FB010008FB01000820
:1000D000FB010008BD1200086D1300082114000880
:1000E000FB010008FB010008FB010008FB01000800
:1000F000FB010008FB010008FB010008FB010008F0
:10010000FB010008FB010008FB010008FB010008DF
:100110004D12000889120008FB010008FB010008CD
:10012000FB010008FB010008FB010008FB010008BF
:1001300000F002F800F045F80AA090E8000C8244B4
:100140008344AAF10107DA4501D100F03AF8AFF291
:10015000090EBAE80F0013F0010F18BFFB1A43F0A5
:1001600001031847EC1A00000C1B0000103A24BFD2
:1001700078C878C1FAD8520724BF30C830C144BF0C
:1001800004680C607047000000230024002500264E
:10019000103A28BF78C1FBD8520728BF30C148BFEA
:1001A0000B607047782900F0A580632900F0AA81D0
:1001B000732900F0AF81002070471FB51FBD10B537
:1001C00010BD00F00BFA1146FFF7F7FF01F020FC1D
:1001D00000F029FA03B4FFF7F2FF03BC00F030FA95
:1001E0000948804709480047FEE7FEE7FEE7FEE7CB
:1001F000FEE7FEE7FEE7FEE7FEE7FEE70448054907
:10020000054A064B70470000ED1100083101000857
:10021000E8010020E8070020E8030020E8030020B0
:100220000FB4044910B503AA029800F077F910BC86
:100230005DF814FB040000202DE9F0410E46044651
:10024000002020622046E168884730B3252805D089
:10025000D4E901219047206A401CF2E7E16820467A
:1002600000278847050018D0A5F14100192802D8B9
:1002700020354FF400673246294620462760FFF7B5
:1002800091FF40B1012804D0F61D26F0070608367C
:10029000D8E7361DD6E72846DAE7206ABDE8F081C0
:1002A00070B50C460546012A05D02878800600D591
:1002B000EA69002302E0012305E05B1C934202D2BD
:1002C000E05C0028F9D1A869E618C01AA861286A7C
:1002D000184428622846AFF3008004E0D5E90121E4
:1002E00014F8010B9047B442F8D32846AFF30080CE
:1002F00070BD000070B504460D4621461068AFF38E
:1003000000802188090502D50F4A7A4402E00E4A8E
:100310007A440E32002104F1240305E000F00F06B8
:100320000009965D5E54491C0028F7D1207800230F
:10033000000704D5702D02D009B1022311322046E6
:10034000BDE8704000F07BB81A19000030B50546D2
:100350000B462A4613F8014B12F8010B08B1A042D4
:10036000F8D01CB1002802D06D1CF1E7284630BD42
:1003700010B5431C02E010F8011B71B18107FAD1DE
:100380004FF0013202C88C1A8C4314EAC211F9D022
:10039000C01A0A0603D0C01E10BDC01A10BD0A0440
:1003A00001D0801E10BD0902FCD0401E10BD032AE2
:1003B00040F2308010F0030C00F0158011F8013B82
:1003C000BCF1020F624498BF11F801CB00F8013B69
:1003D00038BF11F8013BA2F1040298BF00F801CB2D
:1003E00038BF00F8013B11F0030300F0A980083A80
:1003F000C0F0088051F8043B083A51F804CBA0E85B
:100400000810F5E7121D5CBF51F8043B40F8043BAF
:10041000AFF30080D20724BF11F8013B11F801CBE4
:1004200048BF11F8012B24BF00F8013B00F801CBB5
:1004300048BF00F8012B70477047704770472DE99F
:10044000F0470D4699469246044600F1240801689B
:10045000880604D5E06921F01001216000E0012048
:10046000A84201DD471B00E00027A1697A1902EBD1
:100470000900081AA0612078C00602D42046AFF314
:100480000080002608E0D4E901211AF80600904710
:10049000206A401C761C20624E45F4DB2078C006A2
:1004A0000AD52046AFF3008006E0D4E901213020D0
:1004B0009047206A401C2062381EA7F10107F4DC37
:1004C00007E0D4E9012118F805009047206A401C94
:1004D0002062281EA5F10105F3DC2046AFF3008061
:1004E0002078000602D50220BDE8F0870120FBE756
:1004F00010B5436913B1AFF3008001E0FFF7D0FE00
:10050000012010BD127800F124010A7000224A7007
:100510000122EDE711684FF0FF32E9E7074B70B5B4
:100520000D467B4400F043F80446284600F052F89C
:1005300010B14FF0FF3070BD204670BDD3140000E5
:1005400010B5203AC0F00B80B1E81850203AA0E86E
:100550001850B1E81850A0E81850BFF4F5AF5FEAA2
:10056000027C24BFB1E81850A0E8185044BF18C955
:1005700018C0BDE810405FEA827C24BF51F8043BFC
:1005800040F8043B08BF7047D20728BF31F8023B50
:1005900048BF11F8012B28BF20F8023B48BF00F8E4
:1005A000012B704701694A1C02610878704700B549
:1005B0008FB0CDE901310021059105497944CDE99C
:1005C000031011466846FFF737FE0FB000BD00006C
:1005D000E5FFFFFF007B00F080007047754600F0EC
:1005E0002BF8AE4605006946534620F007008546C5
:1005F00018B020B5FFF702FEBDE820404FF000061E
:100600004FF000074FF000084FF0000B21F00701FA
:10061000AC46ACE8C009ACE8C009ACE8C009ACE83D
:10062000C0098D46704710B50446AFF300802046E0
:10063000BDE81040FFF7CEBD00487047880100209C
:1006400001491820ABBEFEE726000200704710B536
:10065000142000F075FC04460321142000F02FFD47
:1006600010BD00BFFEE770B505460C462846FFF7F3
:100670007FFE06462046FFF77BFE864208D12146D4
:100680002846FFF763FE08B1012070BD0020FCE79B
:100690000020FAE770B505460C46284600F050FCED
:1006A000064626EA0401284601F046F970BD704767
:1006B00010B510222FA13048FFF779FE192001F064
:1006C00075F900BF00F05CF92C4908700846007805
:1006D000FF2825D0084600782A2821D0084600782F
:1006E00023281DD0192001F061F9244801782448FD
:1006F00002680068401C224B18601F4881541F4844
:10070000017820A0FFF78CFD03E000F039F91B49C8
:1007100008701A480078FF28F7D10A2001F046F93E
:10072000164800782A28CDD103E000F029F91349B2
:10073000087012480078FF28F7D10A2001F036F936
:100740000D4911A0FFF76CFD00200D4908600A4912
:100750000F48FFF788FF01280AD10EA0FFF760FDC0
:100760001248006808B9012000E000200F49086025
:1007700010BD00002000000078010020840000204F
:100780008000002025630D0025730A0A0000000088
:100790007000002050617373776F7264206973205A
:1007A000526967687421200A0A000000948121427E
:1007B0002DE9F041024600250026002000230024F8
:1007C000002791F803C00CF00F0591F803C00CF05E
:1007D000100CBCF1000F03D091F802C04CEA0505E3
:1007E00091F800C0BCF1000F31D0146800202BE05C
:1007F0004FF0010C0CFA00F3B1F800C00CEA03064C
:100800009E4220D183004FF00F0C0CFA03F7BC433B
:1008100005FA03FC4CEA040491F803C0BCF1280F6C
:1008200006D14FF0010C0CFA00FCC2F814C00AE02B
:1008300091F803C0BCF1480F05D14FF0010C0CFA40
:1008400000FCC2F810C0401C0828D1D31460B1F8D5
:1008500000C0BCF1FF0F34DD546800202EE000F131
:10086000080C4FF0010808FA0CF3B1F800C00CEACC
:1008700003069E4221D183004FF00F0C0CFA03F7C0
:10088000BC4305FA03FC4CEA040491F803C0BCF134
:10089000280F05D100F1080C08FA0CF8C2F81480F2
:1008A00091F803C0BCF1480F07D100F1080C4FF0DC
:1008B000010808FA0CF8C2F81080401C0828CED3B2
:1008C0005460BDE8F081416170470000F8B504460E
:1008D0000D4616461F462148844204D101210420BA
:1008E00000F0A4FA2EE01E48844204D10121082021
:1008F00000F09CFA26E01B48844204D1012110201C
:1009000000F094FA1EE01848844204D1012120200E
:1009100000F08CFA16E01548844204D101214020F1
:1009200000F084FA0EE01248844204D101218020B4
:1009300000F07CFA06E00F48844203D101218015C3
:1009400000F074FAADF800508DF803608DF8027075
:1009500069462046FFF72CFFF8BD00000008014063
:10096000000C01400010014000140140001801403B
:10097000001C0140002001400161704700BFFEE7FC
:1009800010B500204F49086001204F49C1F8980177
:100990004C49083908604C49C1F8900101F006F84B
:1009A00048489C38006808B9312010BD454898383F
:1009B000006808B93220F8E742489438006808B95E
:1009C0003320F2E73F489038006808B94120ECE74F
:1009D00001203C49086000203B49C1F898010120F2
:1009E0003849083908603849C1F8900100F0DEFF45
:1009F00034489C38006808B93420D6E73148983824
:100A0000006808B93520D0E72E489438006808B946
:100A10003620CAE72B489038006808B94220C4E75E
:100A20000120284908602849C1F89801002025497B
:100A30000839086001202449C1F8900100F0B6FF90
:100A400020489C38006808B93720AEE71D48983820
:100A5000006808B93820A8E71A489438006808B92F
:100A60003920A2E717489038006808B943209CE76E
:100A70000120144908601449C1F898011149083946
:100A8000086000201049C1F89001012000F08EFF9D
:100A90000C489C38006808B92A2086E7094898382D
:100AA000006808B9302080E706489438006808B923
:100AB00023207AE703489038006808B9442074E797
:100AC000FF2072E79C0121420000214210B5032360
:100AD0001422F0210448FFF7F9FE032348220F21D6
:100AE0000148FFF7F3FE10BD0008014010B50323D5
:100AF000102260210648FFF7E9FE20210448FFF795
:100B0000E2FE0323482220210248FFF7DFFE10BD4A
:100B1000000C0140001801402DE9FC41044600276B
:100B200000210D2000F008FF93202070202060702D
:100B300001A823460222214600900C2000F07EF8F6
:100B400006465EB9002503E0605D4740681CC5B2FB
:100B5000042DF9DB605DB84200D002263046BDE8C6
:100B6000FC81000008B50121082000F05FF94FF476
:100B70008050ADF8000003208DF8020010208DF8A1
:100B8000030069461948FFF713FE4FF40060ADF803
:100B9000000069461548FFF70BFE4FF480511348DB
:100BA000FFF7EAFE4FF400611048FFF7E5FE00F0A2
:100BB0003DF800F035F88D212A2000F0BDFE3E21E1
:100BC0002B2000F0B9FE1E212D2000F0B5FE0021E3
:100BD0002C2000F0B1FE4021152000F0ADFE3D219B
:100BE000112000F0A9FEFFF732FD08BD000C014006
:100BF0007CB506460C4607210D2000F09DFE2670B0
:100C000001A823460122214600900C2000F016F88E
:100C1000054615B90198102800D0022528467CBD4C
:100C200010B50F21012000F087FE10BD10B5102176
:100C3000014800F0F3F910BD003800402DE9FE4FE7
:100C40000646884691469A46DDF830B0022002906A
:100C50000020019000900C2E06D00E2E09D11220FB
:100C600001901020009005E0772001903020009046
:100C700000E000BF00BF019840F08001022000F0BA
:100C80005BFE80210420FFF705FD80210A2000F093
:100C900016FA0021012000F04FFE002505E018F8AB
:100CA0000510092000F048FE6D1C4D45F7D3314674
:100CB000012000F041FE0C2E03D180210D2000F018
:100CC000FEF94FF4FA6500BF042000F039F904463C
:100CD0006D1E35B104F0010018B9009820400028BD
:100CE000F2D080210D20FFF7D5FC95B3062000F04F
:100CF00027F900F01B0068BB0020029001982040FB
:100D000000F0010008B1012002900C2E24D10A202D
:100D100000F016F904460C2000F012F900F0070765
:100D20002FB1601E07EBC000CBF8000002E0E0002E
:100D3000CBF8000004B90124102C00DD102400259C
:100D400005E0092000F0FCF80AF805006D1CA5423A
:100D5000F7D301E0022002900298BDE8FE8F00BFA9
:100D6000FEE7704770B5002100230F22C47804B35A
:100D7000154C246804F4E064C4F5E064210AC1F170
:100D80000403CA40447804FA03F1847814402143F0
:100D900009010E4C0678A155047804F01F050124C2
:100DA000AC4005786D11AD0005F1E025C5F80041B6
:100DB00009E0047804F01F050124AC40044D0678D6
:100DC000761145F8264070BD0CED00E000E400E02F
:100DD00080E100E07047000010B50446214602485B
:100DE00000F002F910BD00000038004029B1064AA9
:100DF000D2690243044BDA6104E0034AD2698243B8
:100E0000014BDA61704700000010024029B1064A28
:100E100012690243044B1A6104E0034A12698243D7
:100E2000014B1A61704700000010024029B1064AC8
:100E300092690243044B9A6104E0034A9269824337
:100E4000014B9A61704700000010024029B1064A28
:100E5000D2680243044BDA6004E0034AD26882435A
:100E6000014BDA60704700000010024030B50021ED
:100E70000022002400232D4D6D6805F00C0121B1E6
:100E8000042905D0082923D105E0294D056022E079
:100E9000274D05601FE0254D6D6805F47012234D48
:100EA0006D6805F48034022505EB92421CB9214D92
:100EB000554305600BE01D4D6D6805F400351DB10F
:100EC0001C4D5543056002E0194D5543056002E095
:100ED000174D056000BF00BF144D6D6805F0F001AF
:100EE0000909154D6B5C0568DD4045600F4D6D6867
:100EF00005F4E061090A104D6B5C4568DD408560D2
:100F00000A4D6D6805F46051C90A0B4D6B5C45686C
:100F1000DD40C560054D6D6805F44041890B074D06
:100F20006B5CC568B5FBF3F5056130BD0010024090
:100F300000127A0000093D005400002064000020E7
:100F400070B504464FF480510A48FFF7BCFC7E217F
:100F500001EA440141F08000FFF73EFF0020FFF767
:100F60003BFF05464FF480510248FFF705FD284638
:100F700070BD0000000C014021B1028842F0400227
:100F8000028004E002884FF6BF731A400280704767
:100F90000246002013890B400BB1012000E0002025
:100FA00070470146888970478181704710B50022DB
:100FB000028802F441520B884C8823438C882343D7
:100FC000CC8823430C8923434C8923438C892343B6
:100FD000CC8923431A430280838B4FF2FF74234052
:100FE00083830B8A038210BD70B504460D4600BF93
:100FF00002212046FFF7CCFF0028F9D029462046E1
:10100000FFF7D2FF00BF01212046FFF7C1FF0028F4
:10101000F9D02046FFF7C5FFC0B270BD30B585B02E
:1010200004460D4601210846FFF700FF1F48844291
:101030000AD103231822E0211D48FFF747FC0121B4
:101040000803FFF7F3FE0CE01A48844209D103239A
:10105000182281001848FFF739FC01218803FFF7A7
:10106000C5FEADF80C500020ADF800004FF48270C2
:10107000ADF802000020ADF80400ADF80600ADF8B0
:1010800008004FF40070ADF80A000020ADF80E0023
:101090000720ADF8100069462046FFF787FF0121C1
:1010A0002046FFF769FF05B030BD00000030014069
:1010B0000008014000380040000C0140704770B546
:1010C00005460C462846FFF73BFF064646EA040164
:1010D000284600F031FC70BD10B500F001F810BDDD
:1010E0000CB50020019000903348006840F4803037
:1010F0003149086000BF3048006800F400300090BB
:101100000198401C0190009818B90198B0F5A06FA3
:10111000F1D12948006800F4003010B1012000909E
:1011200001E0002000900098012843D12348006886
:1011300040F01000214908600846006820F00300D4
:1011400008600846006840F0020008601A484068DD
:10115000194948600846406848600846406840F4BD
:10116000806048600846406820F47C10486008466B
:10117000406840F4E81048600846006840F080701D
:10118000086000BF0C48006800F000700028F9D02B
:101190000948406820F00300074948600846406855
:1011A00040F00200486000BF0348406800F00C00B7
:1011B0000828F9D10CBD00000010024000200240B8
:1011C000042808D14FF0E021096941F004014FF0F3
:1011D000E022116107E04FF0E021096921F00401EC
:1011E0004FF0E022116170477047000010B51348BE
:1011F000006840F001001149086008464068104945
:1012000008400E494860084600680E4908400B49EE
:1012100008600846006820F480200860084640689E
:1012200020F4FE0048604FF41F008860FFF754FF71
:101230004FF000600449086010BD0000001002403B
:101240000000FFF8FFFFF6FE08ED00E010B540F2E9
:101250002551064800F0C9F930B10448001D008846
:10126000C1B2034800F00CFA10BD0000004C004071
:101270002C00002010B504460121C804FFF7B6FD7C
:10128000072C00D000BF10BD10B540F22551054815
:1012900000F0ABF928B103488088C1B2024800F0E1
:1012A000EFF910BD005000403800002010B5044692
:1012B00001210805FFF79AFD10BD000010B540F2AE
:1012C0002551064800F091F930B10448001D00880E
:1012D000C1B2034800F0D4F910BD0000003801404D
:1012E0000800002010B50446E4B901210520FFF7ED
:1012F0009DFD01218803FFF799FD4FF40070184907
:1013000008801820C870032088701648FFF750FA2C
:101310004FF48060124908800420C8701148FFF71C
:1013200047FA1BE0012C19D101210820FFF77EFDAF
:1013300001218803FFF77AFD402009490880182021
:10134000C870032088700848FFF732FA80200449EB
:1013500008800420C8700448FFF72AFA10BD000076
:101360005000002000080140000C014010B540F280
:101370002551064800F039F930B10448001D0088B5
:10138000C1B2034800F07CF910BD000000440040E9
:101390001400002010B5044601214804FFF726FD83
:1013A000022C1AD101210420FFF740FD012148043D
:1013B000FFF71CFD0420174908801820C87003207F
:1013C00088701548FFF7F4F90820124908800420B6
:1013D000C8701148FFF7ECF91BE0032C19D101216B
:1013E0002020FFF723FD01214804FFF7FFFC202008
:1013F000084908801820C870032088700748FFF744
:10140000D7F94020034908800420C8700348FFF73B
:10141000CFF910BD50000020000801400014014029
:1014200010B540F22551064800F0DFF830B104480D
:10143000001D0088C1B2034800F022F910BD000071
:10144000004800402000002010B504460121880417
:10145000FFF7CCFC042C1AD101210820FFF7E6FC91
:1014600001218804FFF7E2FC2002284908801820A7
:10147000C870032088702648FFF79AF96002234954
:1014800008800420C8702248FFF792F93CE0052C40
:101490001CD101211020FFF7C9FC01218804FFF7AE
:1014A000C5FC4FF48060194908801820C8700320DB
:1014B00088701848FFF77CF94FF4006013490880E2
:1014C0000420C8701348FFF773F91DE0062C1BD1E8
:1014D00001212020FFF7AAFC01218804FFF7A6FCC8
:1014E0004FF48070094908801820C8700320887064
:1014F0000948FFF75DF94FF40070044908800420A3
:10150000C8700548FFF754F910BD000050000020D6
:10151000000C0140001001400014014021B18289FB
:1015200042F40052828104E082894DF6FF731A4032
:101530008281704710B504462048844209D10121B8
:101540008803FFF783FC00214FF48040FFF77EFC07
:1015500032E01B48844209D101214804FFF756FCC0
:1015600000214FF40030FFF751FC25E0154884427C
:1015700009D101218804FFF749FC00214FF48020A4
:10158000FFF744FC18E01048844209D10121C80447
:10159000FFF73CFC00214FF40020FFF737FC0BE085
:1015A0000A48844208D101210805FFF72FFC0021D9
:1015B0004FF48010FFF72AFC10BD000000380140F6
:1015C0000044004000480040004C004000500040F3
:1015D00002460020B1F5007F00D100BF13880B4008
:1015E0000BB1012000E00020704770B502460024D6
:1015F00000230025002040F66A16B14200D100BF4A
:10160000C1F3421501F01F03012606FA03F3012D71
:1016100002D19689334006E0022D02D1168A33406A
:1016200001E0968A33400C12012606FA04F416886B
:10163000344013B10CB1012000E0002070BD000067
:1016400001460A4A914200D10020094A914200D144
:101650000120084A914200D10220074A914200D15C
:101660000420064A914200D105207047003801400D
:101670000044004000480040004C00400050004042
:1016800010B5C28883889A420FDA028983889A4209
:1016900001D1002202814AB2048903681A550289E5
:1016A000521C0281C288521CC28010BDF0B5034694
:1016B000002400260025002040F66A17B94200D118
:1016C00000BF1846C1F3421401F01F06012707FAB4
:1016D00006F5012C01D10C3004E0022C01D11030B0
:1016E00000E014301AB107682F43076002E0076872
:1016F000AF430760F0BD00002DE9F04786B0054616
:101700000E460024A24600BFA1460027B08900B1C2
:1017100000BF2F462C8A4CF6FF700440F08804432B
:101720002C82AC894EF6F3100440B088318908430E
:10173000718908430443AC81AC8A4FF6FF400440F2
:10174000B0890443AC8201A8FFF790FB1F48874291
:1017500002D1DDF810A001E0DDF80CA0A88900F4AA
:10176000004040B10AEBCA0000EB0A1031684900A2
:10177000B0FBF1F807E00AEBCA0000EB0A10316891
:101780008900B0FBF1F86420B8FBF0F004012009F7
:10179000642101FB1089A88900F4004040B1322087
:1017A00000EBC900B0FBF1F000F00700044308E0D3
:1017B000322000EB09106421B0FBF1F000F00F00C3
:1017C00004432C8106B0BDE8F087000000380140DA
:1017D00013B5044600BF80212046FFF7F9FE00281C
:1017E000F9D09DF80400A0801CBD000070B586B043
:1017F00004460D46164602964948844212D12846B0
:10180000FFF770FD25208DF804000020ADF81400CE
:101810000C20ADF812000020ADF81000ADF80E005D
:10182000ADF80C003F48844212D12846FFF7B2FDC4
:1018300026208DF804000020ADF814000C20ADF82F
:1018400012000020ADF81000ADF80E00ADF80C004D
:101850003548844212D12846FFF7F6FD27208DF83F
:1018600004000020ADF814000C20ADF81200002098
:10187000ADF81000ADF80E00ADF80C002B48844216
:1018800012D12846FFF7F6FC34208DF80400002022
:10189000ADF814000C20ADF812000020ADF81000D7
:1018A000ADF80E00ADF80C002148844212D1284654
:1018B000FFF7FCFC35208DF804000020ADF8140083
:1018C0000C20ADF812000020ADF81000ADF80E00AD
:1018D000ADF80C0000212046FFF720FE2046FFF760
:1018E00029FE02A92046FFF707FF01212046FFF746
:1018F00015FE012240F225512046FFF7D7FE0120B8
:101900008DF8070000208DF805002046FFF798FEAF
:101910008DF8060001A8FFF725FA06B070BD00009B
:10192000003801400044004000480040004C0040A6
:101930000050004000BFFEE770B504460D464FF46E
:1019400080510848FEF7BFFF7E2101EA4400FFF7FF
:1019500043FA2846FFF740FA4FF480510148FFF759
:101960000BF870BD000C014010B56FF00400FFF7DC
:1019700027FC0A4800680A49B0FBF1F009490870E1
:101980000846007800EB4001C1EBC0104FF6FF7134
:1019900001EAC0000449088010BD00009400002046
:1019A00000127A0000000020020000200146114AC7
:1019B00012884A434FF0E0235A6100229A611A4686
:1019C000126942F001021A6100BF4FF0E022106973
:1019D00000F001021AB100F48032002AF5D04FF075
:1019E000E022126922F001024FF0E0231A61002286
:1019F0009A6170470200002070B504460D46E1B2BE
:101A00000248FFF7E5FE204670BD0000004400409C
:101A10001CB5FFF76BF8FFF7A7FF4FF4E132022187
:101A20005348FFF7E3FEFFF79DF8FFF74FF801205B
:101A3000504908609AE050A0FEF7F2FB5449262076
:101A4000FFF7D6F8534908700846007828B950487F
:101A50004278017850A0FEF7E3FB4D48FFF75CF8B1
:101A60004C49087053484A490A6802600979017173
:101A70004848007800283BD14E4800794D49C97844
:101A8000CDE900104B488378427801784AA0FEF7F0
:101A9000C7FB00205449087026E054485249097891
:101AA000415C4448504A1278805C814203D0002057
:101AB0004F49087002E001204D4908704D484A49DD
:101AC0000978405C3B49484A1278895C884203D0D7
:101AD00000204949087002E0012047490870424847
:101AE0000078401C404908703F4800780528D4DB46
:101AF000FEF746FF4149087008460078FF2816D0D7
:101B0000084601783EA0FEF78BFB1920FFF74EFF39
:101B10003A480078232801D1FEF7CAFD03E0FEF71A
:101B20002FFF3649087035480078FF28F7D1304834
:101B30000078012803D030480078012813D1002014
:101B40002B4908702C4908700A48006808B9012020
:101B500000E00020074908602CA0FEF761FB4FF46D
:101B60007A70FFF723FF3220FFF720FF63E70000C2
:101B7000004400409481214257616974696E672076
:101B8000796F7572204361726421200D0A00000094
:101B9000680100206A00002046696E64206F757439
:101BA000206120636172643A2025782C2025780D0D
:101BB0000A0000006B000020596F7572206361728B
:101BC000642773206E756D626572206172653A20BC
:101BD00025782C2025782C2025782C2025782C2061
:101BE0002578200D0A0000006800002087000020F2
:101BF000850000208C00002086000020840000204A
:101C00004B65793A202563200D0A00005468652051
:101C1000436172642773206E756D6265722069730B
:101C2000204F6B210D0A0000303132333435363706
:101C30003839414243444546403058003031323310
:101C40003435363738396162636465664030780010
:101C5000701C000800000020A80000006C010008B3
:101C6000181D0008A8000020400700008801000897
:101C70000000000000000000A8000020200000007C
:101C800000000000C800002020000000000000004C
:101C9000E8000020200000000000000008010020F3
:101CA00020000000000000002801002020000000AB
:101CB000000000004801002020000000000000009B
:101CC0000000000000000000010203040102030400
:101CD00006070809020406080000000000000000D2
:101CE00031323334353600000000000000000000BF
:101CF0000000000000000016E723A371C42499220D
:101D00005B00000000A24A04000000000000000088
:081D10000102030406070809A3
:0400000508000131BD
:00000001FF
