:020000040800F2
:10000000B806002089010008270F0008230F000808
:10001000250F00088F02000875110008000000007D
:100020000000000000000000000000002B0F00088E
:100030009102000800000000290F00082D0F0008A1
:10004000A3010008A3010008A3010008A301000800
:10005000A3010008A3010008A3010008A3010008F0
:10006000A3010008A3010008A3010008A3010008E0
:10007000A3010008A3010008A3010008A3010008D0
:10008000A3010008A3010008A3010008A3010008C0
:10009000A3010008A3010008A3010008A3010008B0
:1000A000A3010008A3010008A3010008A3010008A0
:1000B000A3010008A3010008A3010008A301000890
:1000C000A3010008A3010008A3010008A301000880
:1000D000A301000869110008A3010008A30100089A
:1000E000A3010008A3010008A301000800F002F822
:1000F00000F03AF80AA090E8000C82448344AAF188
:100100000107DA4501D100F02FF8AFF2090EBAE885
:100110000F0013F0010F18BFFB1A43F0010318473B
:100120001C1100003C110000103A24BF78C878C1AF
:10013000FAD8520724BF30C830C144BF04680C60ED
:10014000704700000023002400250026103A28BF35
:1001500078C1FBD8520728BF30C148BF0B60704739
:100160001FB51FBD10B510BD00F058F81146FFF7C0
:10017000F7FF01F011F800F076F803B4FFF7F2FF93
:1001800003BC00F07DF8000009488047094800479B
:10019000FEE7FEE7FEE7FEE7FEE7FEE7FEE7FEE737
:1001A000FEE7FEE704480549054A064B7047000094
:1001B000810F0008ED000008B8000020B8060020FC
:1001C000B8020020B80200204FF0000200B513462C
:1001D00094469646203922BFA0E80C50A0E80C5067
:1001E000B1F12001BFF4F7AF090728BFA0E80C5018
:1001F00048BF0CC05DF804EB890028BF40F8042B11
:1002000008BF704748BF20F8022B11F0804F18BF7D
:1002100000F8012B7047704770477047754600F033
:100220002BF8AE4605006946534620F00700854688
:1002300018B020B5FFF7B6FFBDE820404FF000062C
:100240004FF000074FF000084FF0000B21F00701BE
:10025000AC46ACE8C009ACE8C009ACE8C009ACE801
:10026000C0098D46704710B50446AFF300802046A4
:10027000BDE81040FFF781BF0048704758000020DC
:1002800001491820ABBEFEE7260002007047FEE7DA
:10029000704710B590F821100022022905D00421E2
:1002A000816380F82020012010BD01680B6823F0D5
:1002B0000E030B6001680B6823F001030B6090F8DC
:1002C0004030C46B012101FA03F3636080F8211010
:1002D00080F82020104610BD10B590F821100024A1
:1002E000022903D00421816301243DE001680A68EA
:1002F00022F00E020A6001680A6822F001020A6018
:100300001A4A0168914201D1012121E0174A1432B1
:10031000914201D110211BE0144A2832914201D1AF
:10032000891515E0114A3C32914201D189140FE040
:100330000E4A5032914202D14FF4803108E00B4A0C
:100340006432914202D14FF4801101E04FF080718C
:10035000064A083A5160012180F82110002180F8F6
:100360002010416B01B18847204610BD08000240B3
:100370002DE9F84FDFF8B891002409F1040A0AF1D9
:10038000040B23460F270BF1040EC9E00125A540FD
:100390002A40AA427DD1674ED1F804C0ACEB0608D2
:1003A000B44532D014DCBCF1030F3AD009DCBCF107
:1003B000000F2AD0BCF1010F1CD0BCF1020F31D1CB
:1003C0001DE0BCF1110F17D0BCF1120F2AD119E0BA
:1003D000B8F5881F19D006DCB8F5803F15D0B8F500
:1003E000801F1FD111E0B8F5001F0ED0B8F5041F13
:1003F00018D10AE0CB6815E0CB681B1D12E0CB6872
:1004000008330FE0CB680C330CE08B682BB1012B69
:100410004FF0080303D0456104E0042302E00561C6
:1004200000E00023FF2A01D8064601E000F104069F
:100430004FEA840501D9A5F12005D6F8008007FA16
:1004400005FC28EA0C0803FA05F548EA0508C6F891
:1004500000804D68ED0062D5374DAE6946F001066B
:10046000AE61AD6924F0030605F001050095334D3A
:1004700006EB050CDCF80850A607360F07FA06F85D
:1004800025EA0805DFF8B880404503D14FF00008A1
:1004900017E044E0DFF8AC80404502D14FF001089E
:1004A0000FE0DFF8A480404502D14FF0020808E0D9
:1004B000DFF89880404502D14FF0030801E04FF08B
:1004C000040808FA06F848EA0508CCF808804D68E0
:1004D000D9F80060ED034D4601D5164300E0964380
:1004E0002E604D68DAF80060AD03554601D516431D
:1004F00000E096432E604D68DBF80060ED025D463B
:1005000001D5164300E096432E604D68DEF800608A
:10051000AD02754601D5164300E096432E60641C7B
:100520000D682A46E5407FF431AFBDE8F88F000042
:1005300000040140000011100010024000000140C2
:1005400000080140000C014000100140001401406F
:100550000AB1016170470904FBE7000001488068A7
:1005600070470000040000200248816802781144AE
:100570008160704704000020074810B5016841F011
:1005800010010160032000F075F80F2000F006F85C
:1005900000F024F8002010BD0020024070B50D4D81
:1005A00004464FF47A712878B1FBF0F00A490968E3
:1005B000B1FBF0F000F0ECFA48B9102C07D20022A1
:1005C0002146501E00F036F800206C6070BD0120FE
:1005D00070BD000004000020100000200C4808B589
:1005E000816941F001018161816901F0010100919E
:1005F000C16941F08051C161C06900F08050009034
:100600000448416821F0E06141F00071416008BD9B
:100610000010024000000140002809DB00F01F022A
:10062000012191404009800000F1E020C0F8001154
:1006300070470000F0B40E4B1B680C46C3F3022356
:10064000C3F10705042D00D90425191D072901D27E
:10065000002300E0DB1E012606FA05F1491E2140B9
:1006600099409E40761E16403143F0BC00F083BD99
:100670000CED00E0064900F0070208684FF6FF03A2
:10068000184040EA0220034A104308607047000007
:100690000CED00E00000FA052DE9F0470F460500DB
:1006A00061D0434E306800F00700B84209D230688C
:1006B00020F0070038433060306800F00700B8428F
:1006C00051D128683B4C810712D5400703D560689B
:1006D00040F4E06060602878000703D5606840F46B
:1006E000605060606068A96820F0F00008436060B6
:1006F0002878C00728D06868012810D0216802280F
:1007000010D0890700292EDA616821F00301014326
:100710006160FFF723FF804641F288390DE02168D0
:100720008903EFE78901EDE7FFF718FFA0EB080168
:10073000494502D90320BDE8F0876068696800F088
:100740000C00B0EB810FEFD1306800F00700B84229
:100750000BD9306820F0070038433060306800F073
:100760000700B84201D00120E5E72878400705D509
:100770006068E96820F4E06008436060287800075A
:1007800006D56068296920F4605040EAC1006060C5
:1007900000F038F86168084AC1F30311515CC840A1
:1007A0000649086006480068FFF7F8FE0020C2E727
:1007B0000020024000100240241200081000002017
:1007C000080000200448054900684968044AC1F34C
:1007D0000221515CC8407047100000200010024008
:1007E000341200080448054900684968044AC1F306
:1007F000C221515CC8407047100000200010024028
:100800003412000812A185B00FC98DE80F0014A0A2
:10081000144A006804905168134801F00C03042B3B
:1008200010D0082B0ED1C1F38343C9031DF8030078
:100830000AD5516804AAC1F34041515C0A4A5043A9
:10084000B0FBF1F005B0704708494843FAE70000F3
:1008500002030405060708090A0B0C0D0E0F101001
:10086000010200000010024000127A0000093D0061
:100870002DE9F84F040070D02078C04DC00749D052
:100880006868C0F38100012807D06868C0F3810060
:10089000022809D16868C00306D52868800339D5C5
:1008A00060680028E7D035E06068B0F5803F0BD085
:1008B00010B1B0F5A02F11D0286820F48030286046
:1008C000286820F4802002E0286840F48030286006
:1008D000606890B1FFF742FE06460AE0286840F4DF
:1008E00080202860F0E700BFFFF738FE801B6428F7
:1008F00073D828688003F7D50CE0FFF72FFE064673
:1009000005E000BFFFF72AFE801B6428F0D82868A6
:100910008003F7D420789A4E80074FF001094FF0FA
:10092000000839D5686810F00C0F07D06868C0F36C
:100930008100022809D16868C00306D428688007AE
:1009400014D52069012808D110E02069B0B1C6F89B
:100950000090FFF703FE074605E00AE1FFF7FEFD02
:10096000C01B0228C4D828688007F7D528686169A9
:1009700020F0F80040EAC10028600DE0C6F80080D1
:10098000FFF7ECFD074604E0FFF7E8FDC01B022877
:1009900023D828688007F7D4207800072CD5794819
:1009A000A169D9B1C0F80090FFF7D8FD074604E06F
:1009B000FFF7D4FDC01B02280FD8686A8007F7D55F
:1009C00071484FF4FA510068B0FBF1F0009000BF9D
:1009D0000098411E0091FAD20EE080E0C0F800803D
:1009E000FFF7BCFD074604E0FFF7B8FDC01B022877
:1009F00075D8686A8007F7D42078400760D5E86921
:100A00000027C00008D4E86940F08050E861E86938
:100A1000012700F0805000905C480168C90513D49C
:100A20000168834641F480710160FFF797FD8246BB
:100A300006E000BFFFF792FDA0EB0A0064284ED845
:100A4000DBF80000C005F5D5E06801280AD008B140
:100A5000052813D0286A20F001002862286A20F0B7
:100A6000040002E0286A40F001002862E06841F2D8
:100A7000883B98B1FFF772FD82460BE0286A40F090
:100A800004002862EEE700BFFFF768FDA0EB0A0153
:100A900059455AD8286A8007F6D50CE0FFF75EFD65
:100AA000824605E0FFF75AFDA0EB0A0159454CD8F4
:100AB000286A8007F6D41FB1E86920F08050E86109
:100AC000E06988B36968C1F38101022944D0022832
:100AD000C6F8608004D0FFF741FD044638E034E0FA
:100AE000FFF73CFD074604E0FFF738FDC01B022876
:100AF0002BD828688001F7D4206AB0F5803F05D153
:100B00006868A16820F4003008436860D4E90801EF
:100B10000843696821F4741108436860C6F860905E
:100B2000FFF71CFD044606E025E000BFFFF716FDB9
:100B3000001B022809D828688001F7D51BE000BFF8
:100B4000FFF70CFD001B022802D90320BDE8F88F37
:100B500028688001F4D40EE00128F7D06868226A82
:100B600000F48031914204D1616A00F4701088422F
:100B700001D00120EAE70020E8E700000010024071
:100B800000004242800442421000002000700040F9
:100B900010B5401EB0F1807F01D3012010BD4FF091
:100BA000E02460610F21601700F0E5FA0020A061E9
:100BB00007202061002010BD70477047F8B502681B
:100BC00004461068D168536910F00F0F4FF000050C
:100BD00053D003F0010601F4907737435FD0C2078A
:100BE00005D0CA0503D5226C42F0010222644207F7
:100BF00005D5DA0703D0226C42F002022264820794
:100C000005D5DA0703D0226C42F004022264020701
:100C100007D501F02002324303D0226C42F00802D3
:100C20002264226C002A34D0800604D5880602D5BE
:100C3000204600F0C6F920684069216CC0F380109E
:100C4000090700D430B3204600F0A3F920684169B9
:100C500049061BD5416921F040014161A06BA8B153
:100C600058494163A06BFFF737FB002811D0A06BF8
:100C7000416B01B0BDE8F040084783060FD58B06F5
:100C80000DD52046BDE8F84000F09BB92046FFF79F
:100C900094FFF8BD2046FFF790FF2564F8BD266B52
:100CA0002023012E52D1C60650D5CE064ED510684F
:100CB00050680090506940062AD5A16B08684068CA
:100CC0000004000CEAD0A68D8642E7D9E085886949
:100CD000202818D0D06820F48070D0602068416946
:100CE00021F0010141612068416921F04001416129
:100CF00084F83E3025632068C16821F01001C1608E
:100D0000A06BFFF7C6FAA08DE18D401A81B219E001
:100D1000A08DE18D401A81B2E08D0028BED000295F
:100D2000BCD0D06820F49070D0602068426922F076
:100D30000102426184F83E3025632068C26822F0D7
:100D40001002C2602046FFF737FFF8BD05062BD51D
:100D50000D0629D594F83D002128F6D1A068B0F5FC
:100D6000805F01D12069B0B1206A411C21622168F5
:100D700000784860E08C401E0004000CE084E4D160
:100D80002068C16821F08001C1602068C16841F01D
:100D90004001C160F8BD206A0088C0F308005060BF
:100DA000206A801C2062E5E74006F3D54806F1D5AD
:100DB000D168204621F04001D16084F83D3000F038
:100DC000AFF8F8BD830F000870B5040004D094F8A4
:100DD0003D00002510B106E0012070BD84F83C50B4
:100DE000204600F023F8242084F83D002068C168E4
:100DF00021F40051C160204600F03EF920680169ED
:100E000021F4904101612068416921F02A0141618A
:100E10002068C16841F40051C1602564202084F835
:100E20003D0084F83E00002070BD000030B585B064
:100E300000240094019402940394006818498842A5
:100E40002CD11848816941F480418161816901F4A4
:100E500080410491816941F0040181618069124DF2
:100E600000F0040004904FF4007000900220019004
:100E70000320039069462846FFF77AFA2815CDE942
:100E80000004694628460294FFF772FA00221146D0
:100E90002520FFF7CFFB2520FFF7BEFB05B030BDB7
:100EA00000380140001002400008014090F83E3038
:100EB000202B0ED159B152B190F83C30012B08D003
:100EC000012380F83C300023036300F031B9012096
:100ED000704702207047000010B500680C49884236
:100EE00014D10C4801780C484E2902D0592902D05F
:100EF00005E0002200E001220221FFF729FBBDE806
:100F00001040012203490548FFF7D0BF10BD000083
:100F100000380140000000200008014014000020BB
:100F20007047FEE7FEE7FEE770477047FFF71CBB20
:100F300010B590B028216846FFF746F914210AA899
:100F4000FFF742F9022000900120049010200024B5
:100F5000059007946846FFF78BFC08B172B6FEE770
:100F60000F20CDE90A040C940D9400210AA80E94D8
:100F7000FFF792FB002801D072B6FEE710B010BD5B
:100F8000704710B5406A0021C185C184FFF715FE86
:100F900010BD0168CA6822F49072CA6001684A698B
:100FA00022F001024A61016B012904D10168CA687B
:100FB00022F01002CA60202180F83E100021016357
:100FC000704708B590F83E10222901D0022008BDD4
:100FD00082684FF480539A4201D1016921B1816A3C
:100FE0009A421BD04AB10AE00268816A5268C2F391
:100FF00008020A80816A891C08E0026972B10268ED
:10100000526802F07F020A70816A491C8162C18DB8
:10101000491E0904090CC18503D019E00268526811
:10102000F1E70168CA6822F02002CA600168CA6854
:1010300022F48072CA6001684A6922F001024A61A2
:10104000202180F83E10016B012903D0FFF744FFF7
:10105000002008BD002101630168CA6822F0100267
:10106000CA6001680A68D20602D50A684968009118
:10107000818DFFF7A1FDEBE770B5044600680169BB
:10108000E26821F44051114301612169A0680843DD
:10109000616908432168CA6841F20C639A430243BC
:1010A000CA6020684169A26921F44071114341611D
:1010B0001E492068884202D1FFF794FB01E0FFF748
:1010C00081FB00EBC00101EB00126068642180002D
:1010D000B2FBF0F3B3FBF1F36FF018067343B2FB0E
:1010E000F0F5B2FBF0F605EB8305322303EB0515B3
:1010F000B5FBF1F5B6FBF1F605F0F00505EB0615CD
:10110000B2FBF0F6B2FBF0F0B0FBF1F06FF01802BA
:10111000504306EB800003EB0010B0FBF1F02168B8
:1011200000F00F002844886070BD000000380140C6
:1011300081628285C28500210164222280F83E20DE
:1011400080F83C100168CA6842F48072CA60016885
:101150004A6942F001024A610068C16841F0200119
:10116000C1600020704700000148FFF727BD000064
:1011700014000020FEE70907090E002804DB00F137
:10118000E02080F80014704700F00F0000F1E0202C
:1011900080F8141D7047000086B0FFF7EDF9FFF7E7
:1011A000C7FE00241A4800940194029403948169B4
:1011B00041F0040181618069164D00F00400049043
:1011C000224602212846FFF7C3F902210120CDE97A
:1011D0000010CDE9024169462846FFF7C9F80F48DB
:1011E0000D4901604FF41651C0E901140C21C4608F
:1011F000C0E904418461C461FFF7E6FD08B172B63D
:10120000FEE7012206490548FFF750FEFEE7000011
:101210000010024000080140003801401400002086
:101220000000002000000000000000000102030494
:101230000607080900000000010203045C12000810
:1012400000000020140000002801000870120008AF
:1012500014000020A4060000440100080000000063
:101260000100000010000000000000000024F40055
:04000005080000ED02
:00000001FF
