:020000040800F2
:10000000B004002005010008E1150008FB100008FD
:10001000DD15000883010008F1170008000000004A
:10002000000000000000000000000000651700084C
:100030000502000800000000E31500088117000811
:100040001F0100081F0100081F0100081F01000810
:100050001F0100081F0100081F0100081F01000800
:100060001F0100081F0100081F0100081F010008F0
:100070001F0100081F0100081F0100081F010008E0
:100080001F0100081F0100081F0100081F010008D0
:100090001F0100081F0100081F0100081F010008C0
:1000A0001F0100081F0100081F0100081F010008B0
:1000B0001F0100081F0100081F0100081F010008A0
:1000C0001F0100081F0100081F0100081F01000890
:1000D0001F0100081F0100081F0100081F01000880
:1000E0001F0100081F0100081F010008DFF810D0E1
:1000F00000F02CF8004800477D180008AFF300809E
:10010000B00400200648804706480047FEE7FEE7A7
:10011000FEE7FEE7FEE7FEE7FEE7FEE7FEE7FEE7B7
:10012000EF170008ED000008D2B201E000F8012B43
:10013000491EFBD270470022F6E710B513460A4667
:1001400004461946FFF7F0FF204610BD064C074D48
:1001500006E0E06840F0010394E807009847103497
:10016000AC42F6D3FFF7C6FF3C1900085C19000843
:1001700010B5142001F05AFA0321142001F0F3FA0B
:1001800010BD00BFFEE72DE9F04107468846154641
:100190000421052000F029F880210A2001F0E3FA6B
:1001A000002405E0395D092001F024FB601CC4B285
:1001B0004445F7DB0321012001F01CFBFF2400BFB5
:1001C000052001F033FA0646601EC4B21CB106F0E9
:1001D00004000028F4D0222001F028FA2870212001
:1001E00001F024FA6870BDE8F08170B505460C4650
:1001F000284601F01BFA064626EA0401284601F0CB
:10020000F9FA70BD704770472DE9F84703460022A0
:1002100094466EE14FF0010808FA02F4D1F800802C
:1002200008EA0400A0427DD1DFF8DCA2D1F8048006
:10023000A8EB0A09D0453AD014DCB8F1030F50D02E
:1002400009DCB8F1000F31D0B8F1010F1CD0B8F1C2
:10025000020F49D120E0B8F1110F18D0B8F1120FF8
:1002600042D11EE0B9F5881F25D006DCB9F5803FE4
:1002700020D0B9F5801F37D11AE0B9F5001F18D08A
:10028000B9F5041F30D117E0D1F80CC02DE0D1F83A
:100290000C8008F1040C28E0D1F80C8008F1080C5F
:1002A00023E0D1F80C8008F10C0C1EE000BF00BF69
:1002B00000BF00BF00BF00BFD1F80880B8F1000F39
:1002C00002D14FF0040C0BE0D1F80880B8F1010F17
:1002D00003D14FF0080C1C6102E04FF0080C5C6188
:1002E00003E04FF0000C00E000BF00BFFF2801D882
:1002F000984601E003F104084646FF2802D84FEA79
:10030000820803E0A2F108084FEA88084746D6F8B9
:1003100000804FF00F0909FA07F928EA09080CFADA
:1003200007F900E088E048EA0908C6F80080D1F83B
:10033000048008F08058B8F1805F7DD100BFDFF8FD
:10034000CC81D8F8188048F00108DFF8C091C9F8CE
:100350001880C846D8F8188008F00108CDF8008049
:1003600000BF00BF4FEAB9384FEA920958F8295048
:100370004FEA82784FEA18794FF00F0808FA09F827
:1003800025EA0805DFF88881434502D14FF00008CF
:1003900016E0DFF88081434502D14FF001080FE0FD
:1003A000DFF87481434502D14FF0020808E0DFF81E
:1003B0006C81434502D14FF0030801E04FF004087F
:1003C0004FEA82794FEA197908FA09F848EA0505EF
:1003D000DFF84C814FEA920948F82950D1F804809F
:1003E00008F48038B8F5803F0AD1DFF83881D8F8B2
:1003F000008048EA0008DFF82C91C9F8008009E085
:10040000DFF82081D8F8008028EA0008DFF814918E
:10041000C9F80080D1F8048008F40038B8F5003F2E
:1004200010D1DFF8008108F10408D8F8008048EA0C
:100430000008DFF8F09000E05AE009F10409C9F87B
:1004400000800DE0DFF8DC8008F10408D8F80080B7
:1004500028EA0008DFF8CC9009F10409C9F8008007
:10046000D1F8048008F48018B8F5801F0ED1DFF8A9
:10047000B48008F10808D8F8008048EA0008DFF8DE
:10048000A49009F10809C9F800800DE0DFF8948014
:1004900008F10808D8F8008028EA0008DFF88490FE
:1004A00009F10809C9F80080D1F8048008F400189F
:1004B000B8F5001F0ED1DFF86C8008F10C08D8F8F1
:1004C000008048EA0008DFF85C9009F10C09C9F8DF
:1004D00000800DE0DFF84C8008F10C08D8F80080AF
:1004E00028EA0008DFF83C9009F10C09C9F80080FF
:1004F000521CD1F8008028FA02F8B8F1000F7FF4FE
:1005000089AEBDE8F887000000001110001002401D
:1005100000080140000C014000100140001401409F
:100520000800014000040140024693680B400BB1F3
:10053000012000E0002070470AB1016101E00B04D6
:1005400003617047014800687047000028000020E0
:100550000348006803490978084401490860704766
:10056000280000203000002010B50848006840F046
:10057000100006490860032000F098F8002000F001
:1005800007F800F02BF8002010BD0000002002400A
:1005900070B504460E4800784FF47A71B1FBF0F064
:1005A0000C490968B1FBF0F5284600F08CFD08B154
:1005B000012070BD102C07D200222146501E00F0F1
:1005C00037F80548046001E00120F2E70020F0E779
:1005D00030000020340000202C00002008B500BFAF
:1005E0001148806940F001000F4988610846806920
:1005F00000F00100009000BF00BF00BF0846C069C6
:1006000040F08050C8610846C06900F080500090FA
:1006100000BF00BF00BF0549486820F0E06040F01F
:100620000070486000BF08BD00100240000001409B
:100630002DE9F05F80460D461646002701F0F2F8DE
:10064000074639462A46334601F00700C0F1070A3B
:10065000BAF1040F02D94FF0040A01E0C0F1070A11
:10066000D14600F1040ABAF1070F02D24FF0000A96
:1006700001E0A0F1030AD4464FF0010A0AFA09FA90
:10068000AAF1010A0AEA020A0AFA0CFA4FF0010B6F
:100690000BFA0CFBABF1010B0BEA030B4AEA0B0460
:1006A0002146404601F0C6F8BDE8F09F00BF00F0CB
:1006B0000702064B19684FF6FF031940044B0B4322
:1006C00043EA0221014B196000BF70470CED00E0C6
:1006D0000000FA0570B504460D460CB9012070BD46
:1006E0005A48006800F00700A8420ED25748006838
:1006F00020F007002843554908600846006800F0CC
:100700000700A84201D00120E9E7207800F00200AC
:1007100002281DD1207800F00400042805D14C489F
:10072000406840F4E0604A494860207800F00800E2
:10073000082805D14648406840F460504449486064
:100740004348406820F0F000A168084340494860F1
:10075000207800F0010078B36068012806D13C4899
:10076000006800F4003090B90120B8E76068022802
:1007700006D13748006800F0007040B90120AEE7AC
:100780003348006800F0020008B90120A7E73048AC
:10079000406820F00300616808432D494860FFF776
:1007A000D1FE064609E0FFF7CDFE801B41F28831FD
:1007B000884202D9032092E707E02548406800F00C
:1007C0000C006168B0EB810FEDD12048006800F0AB
:1007D0000700A8420ED91D48006820F007002843F2
:1007E0001A4908600846006800F00700A84201D0D6
:1007F000012074E7207800F00400042807D1144891
:10080000406820F4E060E1680843114948602078BE
:1008100000F00800082808D10D48406820F4605016
:10082000216940EAC1000A49486000F019F8084906
:100830004968C1F30311074A515CC8400649086082
:1008400006480068FFF7A4FE002048E700200240A9
:100850000010024024190008340000202C00002061
:10086000F0B585B00FF26C0C9CE8E01001A8A0E890
:10087000E0101CA52D680095002100220023002413
:100880000020194D696801F00C05F5B1042D02D066
:10089000082D19D101E0154819E001ADC1F38346D7
:1008A000AC5D01F4803555B10F4D6D68C5F3404521
:1008B0001DF805200D4D6543B5FBF2F302E00C4D2C
:1008C00004FB05F3184602E000BF084800BF00BF64
:1008D00005B0F0BD02030405060708090A0B0C0D5C
:1008E0000E0F1010010200000010024000127A00EA
:1008F00000093D00F8B504460CB90120F8BD207888
:1009000000F00100002878D0F848406800F00C00A2
:1009100004280CD0F548406800F00C00082811D1DC
:10092000F248406800F48030B0F5803F0AD1EF48CB
:10093000006800F4003000285FD0606800285CD1B7
:100940000120DBE700BF6068B0F5803F06D1E748D3
:10095000006840F48030E549086028E0606858B9D4
:10096000E248006820F48030E049086008460068EA
:1009700020F4802008601AE06068B0F5A02F0BD149
:10098000DA48006840F48020D849086008460068CA
:1009900040F4803008600AE0D448006820F48030D9
:1009A000D24908600846006820F48020086000BF33
:1009B000606888B1FFF7C6FD054606E0FFF7C2FD97
:1009C000401B642801D9032098E7C848006800F458
:1009D00000300028F2D010E0FFF7B4FD054606E035
:1009E000FFF7B0FD401B642801D9032086E7BF480C
:1009F000006800F400300028F2D1207800F00200F6
:100A0000022857D1B948406800F00C0050B1B748EF
:100A1000406800F00C00082818D1B448406800F481
:100A2000803098B9B148006800F0020020B1206918
:100A3000012801D0012061E7AC48006820F0F800EF
:100A4000616940EAC100A949086033E02069E8B162
:100A50000120A7490860FFF775FD054606E0FFF78E
:100A600071FD401B022801D9032047E79F48006819
:100A700000F002000028F2D09C48006820F0F80046
:100A8000616940EAC1009949086013E00020984973
:100A90000860FFF757FD054606E0FFF753FD401BD2
:100AA000022801D9032029E79048006800F00200DD
:100AB0000028F2D1207800F0080008282DD1A06984
:100AC000B8B101208B490860FFF73CFD054606E000
:100AD000FFF738FD401B022801D903200EE78348A9
:100AE000406A00F002000028F2D0012000F08AFDE8
:100AF00013E000207F490860FFF724FD054606E06B
:100B0000FFF720FD401B022801D90320F6E67748B5
:100B1000406A00F002000028F2D1207800F00400C2
:100B2000042873D100277148C06900F0805070B963
:100B300000BF6E48C06940F080506C49C8610846EB
:100B4000C06900F08050009000BF00BF01276A48D4
:100B5000006800F48070B0B96748006840F48070A5
:100B600065490860FFF7EEFC054606E0FFF7EAFC82
:100B7000401B642801D90320C0E65F48006800F4E8
:100B800080700028F2D000BFE068012806D15748E5
:100B9000006A40F001005549086227E0E06858B952
:100BA0005248006A20F00100504908620846006A75
:100BB00020F00400086219E0E06805280BD14B48DA
:100BC000006A40F00400494908620846006A40F0A3
:100BD000010008620AE04548006A20F0010043492C
:100BE00008620846006A20F00400086200BFE0685E
:100BF000A0B1FFF7A7FC054609E0FFF7A3FC401BE7
:100C000041F28831884202D9032077E622E0374852
:100C1000006A00F002000028EFD012E0FFF792FC1B
:100C2000054608E0FFF78EFC401B41F28831884200
:100C300001D9032062E62D48006A00F00200002876
:100C4000F0D1012F05D12948C06920F080502749F3
:100C5000C86100BFE069C8B32448406800F00C00D8
:100C6000082860D0E069022848D1002020490866A1
:100C7000FFF768FC054606E0FFF764FC401B02280E
:100C800001D903203AE61948006800F000700028F6
:100C9000F2D1206AB0F5803F07D11448406820F4B3
:100CA0000030A168084311494860D4E908010843AD
:100CB0000E49496821F4741108430C494860012029
:100CC0000B490866FFF73EFC054607E03DE0FFF7ED
:100CD00039FC401B022801D903200FE603480068B5
:100CE00000F000700028F2D02FE000000010024059
:100CF000000042428004424200700040002014493B
:100D00000866FFF71FFC054606E0FFF71BFC401BCB
:100D1000022801D90320F1E50E48006800F00070B8
:100D20000028F2D111E0E069012800D1E6E5094888
:100D3000466806F48031206A814204D106F47011BD
:100D4000606A814201D00120D8E50020D6E500008C
:100D5000000042420010024010B504460CB90120C8
:100D600010BD606A38B96068B0F5827F00D105E0D7
:100D70000021E16102E00021216161610021A162A5
:100D800094F8510028B9002084F85000204600F063
:100D900043F8022084F851002068006820F04000E9
:100DA00021680860A08800F48270218901F4044160
:100DB0000843A18901F400610843217C01F002018C
:100DC0000843217D01F001010843218B01F40071EA
:100DD0000843217F01F0380108432021095D01F01B
:100DE00080010843218D01F4005108432168086007
:100DF0000421A06901EA1040216848602068C069A8
:100E000020F400602168C86100206065012084F83A
:100E100051000020A4E7000010B586B00446002071
:100E200002900390049005901949206888422DD1C2
:100E300000BF1848806940F4805016498861084610
:100E4000806900F48050019000BF00BF00BF0846D9
:100E5000806940F0040088610846806900F0040061
:100E6000019000BF00BFA020029002200390032049
:100E7000059002A90848FFF7C7F94020029000201A
:100E80000390049002A90448FFF7BEF906B010BD14
:100E90000030014000100240000801402DE9FF5FD2
:100EA0000446884691461D460E9E01200290002071
:100EB000019000BF94F85000012803D1022004B033
:100EC000BDE8F09F012084F8500000BFFFF73AFB17
:100ED000074694F851B060680390AA46BBF1010F31
:100EE0000BD00398B0F5827F04D1A06810B9BBF194
:100EF000040F02D002200190DBE0B8F1000F03D014
:100F0000B9F1000F00D015B901200190D1E094F89B
:100F10005100042802D0052084F8510000206065AB
:100F2000C4F83890E587A587C4F83080E586A586A3
:100F3000206460642068006800F04000402805D00C
:100F40002068006840F0400021680860E068B0F563
:100F5000006F4AD1606810B1BAF1010F09D1206B5E
:100F600000882168C860206B801C2063E08E401ED2
:100F7000E08633E02068806800F00200022810D18B
:100F8000E08E70B1029801280BD1206B0088216897
:100F9000C860206B801C2063E08E401EE08600202D
:100FA00002902068806800F0010068B1E08F58B1BD
:100FB0002068C068A16B0880A06B801CA063E08FD4
:100FC000401EE08701200290FFF7BCFAC01BB04230
:100FD00004D3701C10B1032001906AE0E08E002859
:100FE000C8D1E08F0028C5D14AE0606810B1BAF1DD
:100FF000010F09D1206B007821680873206B401C19
:101000002063E08E401EE08634E02068806800F0B7
:101010000200022810D1E08E70B1029801280BD195
:10102000206B007821680873206B401C2063E08EE1
:10103000401EE086002002902068806800F00100D9
:1010400068B1E08F58B12068C068A16B0870A06BD0
:10105000401CA063E08F401EE08701200290FFF754
:1010600071FAC01BB04201D3701C00B916B903203D
:1010700001901EE0E08E0028C7D1E08F0028C4D187
:101080003A463146204600F0EDFA20B101200190A9
:10109000202060650DE0A06850B900BF00200090DE
:1010A0002068C068009020688068009000BF00BF82
:1010B00000BF012084F8510000BF002084F85000D8
:1010C00000BF0198FBE670B504462546681EB0F1E6
:1010D000807F01D301200FE0681E4FF0E0214861BE
:1010E0000F214FF0FF3000F0A5FB00204FF0E02172
:1010F000886107200861002070BD00BFFEE72DE970
:10110000FC410446002700210D2000F073FB9320D2
:1011100020702020607001A8234602222146009002
:101120000C2000F0DBF806465EB9002503E0605DA8
:101130004740681CC5B2042DF9DB605DB84200D0A1
:1011400002263046BDE8FC812DE9F04385B0064615
:101150000F46904699468DF804608DF8057000247E
:1011600006E018F8041001AAA01C1154601CC4B2B7
:10117000062CF6DB002407E019F8041001AA04F19C
:1011800008001154601CC4B2042CF5DB04A801ABA8
:101190000C2201A900900E2000F0A0F805462DB900
:1011A000082000F043FA00F0080000B902252846A4
:1011B00005B0BDE8F083000010B5012210211248EF
:1011C000FFF7BAF9012211461048FFF7B5F900F010
:1011D00052F88D212A2000F00DFB3E212B2000F03B
:1011E00009FB1E212D2000F005FB00212C2000F022
:1011F00001FB4021152000F0FDFA3D21112000F0F7
:10120000F9FAFEF7B5FF10BD00080140000C0140DF
:101210007CB505460C46302020706570A21C02216A
:101220002046FEF7B0FF01A8234604222146009085
:101230000C2000F053F8064616B90198902800D00B
:10124000022630467CBD7CB506460C4607210D20A3
:1012500000F0D0FA267001A8234601222146009012
:101260000C2000F03BF8054615B90198102800D075
:10127000022528467CBD10B50F21012000F0BAFAE6
:1012800010BDF0B585B0074693208DF8040070209E
:101290008DF80500002405E0395D01AAA01C115459
:1012A000601CC4B2052CF7DB0DF10B02072101A86D
:1012B000FEF769FF04A801AB092201A900900C20E8
:1012C00000F00CF805462DB90498182802D19DF8B5
:1012D000046000E00026304605B0F0BD2DE9FE4F69
:1012E0000646884691469A46DDF830B002200290C4
:1012F0000020019000900C2E06D00E2E09D1122055
:1013000001901020009005E077200190302000909F
:1013100000E000BF00BF019840F08001022000F013
:1013200069FA80210420FEF760FF80210A2000F086
:101330001AFA0021012000F05DFA002505E018F8F6
:101340000510092000F056FA6D1C4D45F7D33146C3
:10135000012000F04FFA0C2E03D180210D2000F067
:1013600002FA4FF4FA6500BF042000F05FF904466A
:101370006D1E35B104F0010018B900982040002816
:10138000F2D080210D20FEF730FF95B3062000F04B
:101390004DF900F01B0068BB00200290019820402E
:1013A00000F0010008B1012002900C2E24D10A2087
:1013B00000F03CF904460C2000F038F900F0070773
:1013C0002FB1601E07EBC000CBF8000002E0E00088
:1013D000CBF8000004B90124102C00DD10240025F6
:1013E00005E0092000F022F90AF805006D1CA5426D
:1013F000F7D301E0022002900298BDE8FE8FF0B51D
:1014000087B006460F46A0208DF804008DF80560D1
:101410000DF10602022101A8FEF7B5FE06A801ABF8
:10142000042201A900900C20FFF758FF054645B99A
:101430000698042805D19DF8040000F00F000A2842
:1014400000D002250DBB002404E0385D01A9085539
:10145000601CC4B2102CF8DB05AA102101A8FEF70D
:1014600092FE06A801AB122201A900900C20FFF702
:1014700035FF054645B90698042805D19DF80400B6
:1014800000F00F000A2800D00225284607B0F0BD62
:1014900000B585B00020019002900390049000BF39
:1014A0003948806940F010003749886108468069F2
:1014B00000F01000009000BF00BF00BF0846806928
:1014C00040F0200088610846806900F0200000900C
:1014D00000BF00BF00BF0846806940F0040088617B
:1014E0000846806900F00400009000BF00BF00BF04
:1014F0000846806940F0080088610846806900F06D
:101500000800009000BF00BF012251031F48FFF7F1
:1015100013F8002210211E48FFF70EF800220121C7
:101520001C48FFF709F84FF4005001900120029089
:10153000002003900220049001A91448FEF764FEE5
:1015400010200190012002900020039002200490BE
:1015500001A90F48FEF758FE0120019002900020DB
:1015600003900220049001A90A48FEF74DFE4FF4B3
:10157000C050019000200290039001A90448FEF79A
:1015800043FE05B000BD0000001002400010014005
:1015900000080140000C014010B50E480E490860DB
:1015A0004FF48270486000210B488160C160016186
:1015B00041614FF4007181611021C161002101621C
:1015C000416281620A21C162FFF7C6FB08B1FEF7E2
:1015D0001AFE10BD003001403800002000BFFEE7B9
:1015E0007047704701B582B06420012301AA02A9A7
:1015F00000900348FFF752FC9DF804000EBD000068
:101600003800002008B508490968C9084FF47A7203
:10161000B1FBF2F14143009100BF00BF00994A1EA7
:1016200000920029F9D108BD3400002070B50446AD
:10163000002210210A48FEF77FFF7E2101EA4401C3
:1016400041F08000FFF7CEFF0020FFF7CBFF0546FB
:10165000012210210248FEF76FFF284670BD0000EE
:1016600000080140F8B504460D4616462B460022F8
:1016700080212046009600F009F828B1606D40F006
:10168000200060650320F8BD0020FCE72DE9F84F3D
:1016900004460D4690461E46DDF82890FEF752FFA0
:1016A000A0EB0900371AFEF74DFF82462C48006870
:1016B000C0F3CB307843009045E0701C002842D046
:1016C000FEF740FFA0EB0A00B84200D2A7BB20689B
:1016D000406820F0E000216848606068B0F5827FD3
:1016E0000DD1A068B0F5004F03D0A068B0F5806FB1
:1016F00005D12068006820F0400021680860A06AD9
:10170000B0F5005F0DD100BF2068006820F40050E4
:10171000216808602068006840F400502168086073
:1017200000BF012084F8510000BF002084F8500061
:1017300000BF0320BDE8F88FFFE7009800B900273D
:101740000098401E0090206880682840A84201D17F
:10175000012000E000204045AFD10020EAE7000072
:1017600034000020704770B505460C462846FFF748
:101770005DFF064646EA0401284600F03BF870BDCE
:1017800010B5FEF7E5FE10BD00B58FB0282105A805
:10179000FEF7D1FC14216846FEF7CDFC0120059030
:1017A00000040690002007900120099002200C9070
:1017B000C1030D914FF4E0110E9105A8FFF79AF8BF
:1017C00008B1FEF720FD0F200090022001900020BC
:1017D00002904FF48060039000200490022168463C
:1017E000FEF778FF08B1FEF70EFD0FB000BD7047A1
:1017F00000BFFEE770B504460D46002210210848E0
:10180000FEF79AFE7E2101EA4400FFF7EBFE284630
:10181000FFF7E8FE012210210148FEF78DFE70BDA2
:101820000008014002480068C0F302207047000031
:101830000CED00E010B5002804DB0A07130E054A82
:10184000135406E00A07140E034A00F00F031B1F8F
:10185000D45410BD00E400E018ED00E002E008C838
:10186000121F08C1002AFAD170477047002001E01A
:1018700001C1121F002AFBD170470000FEF774FE61
:10188000FFF782FFFFF704FEFFF786FEFFF794FCE9
:1018900036E01C492620FFF7D6FC1B490870194882
:1018A000FFF72DFC18490870184816490A680260AD
:1018B000097901711448007810BB1248FFF7E1FC68
:1018C000124B134A18216020FFF73EFC11490870A3
:1018D0004FF400611048FEF727FE28B90F49182081
:1018E000FFF78DFD084908704FF480510A48FEF754
:1018F0001BFE28B90A491820FFF78AFC0249087024
:10190000C7E7000090000020000000200100002038
:101910000F0000201B000020000801401C000020D8
:10192000A0000020000000000000000001020304ED
:101930000607080900000000010203045C19000802
:1019400000000020380000005C180008941900080E
:1019500038000020780400006C1800080000000027
:10196000000000AA313C29E4552D28FFFFFFFFFFAE
:10197000FF010203040506007A6167726F732D652B
:101980006C65630000000000100000000100000012
:041990000024F4003B
:04000005080000ED02
:00000001FF
